{
  "contractName": "EduDetails",
  "abi": [
    {
      "inputs": [],
      "name": "owner",
      "outputs": [
        {
          "internalType": "address",
          "name": "",
          "type": "address"
        }
      ],
      "stateMutability": "view",
      "type": "function",
      "constant": true
    },
    {
      "inputs": [
        {
          "internalType": "address",
          "name": "ofPerson",
          "type": "address"
        }
      ],
      "name": "retLength",
      "outputs": [
        {
          "internalType": "uint256",
          "name": "length",
          "type": "uint256"
        }
      ],
      "stateMutability": "view",
      "type": "function",
      "constant": true
    },
    {
      "inputs": [
        {
          "internalType": "address",
          "name": "to",
          "type": "address"
        }
      ],
      "name": "grantViewPermissionLoc",
      "outputs": [],
      "stateMutability": "nonpayable",
      "type": "function"
    },
    {
      "inputs": [
        {
          "internalType": "address",
          "name": "org",
          "type": "address"
        }
      ],
      "name": "grantEducationDetailsFillPermisssionLoc",
      "outputs": [],
      "stateMutability": "nonpayable",
      "type": "function"
    },
    {
      "inputs": [
        {
          "internalType": "address",
          "name": "ofPerson",
          "type": "address"
        }
      ],
      "name": "checkViewRights",
      "outputs": [
        {
          "internalType": "bool",
          "name": "status",
          "type": "bool"
        }
      ],
      "stateMutability": "view",
      "type": "function",
      "constant": true
    },
    {
      "inputs": [],
      "name": "checkFillRights",
      "outputs": [
        {
          "internalType": "bool",
          "name": "status",
          "type": "bool"
        }
      ],
      "stateMutability": "view",
      "type": "function",
      "constant": true
    },
    {
      "inputs": [
        {
          "internalType": "address",
          "name": "ofPerson",
          "type": "address"
        },
        {
          "internalType": "uint256",
          "name": "i",
          "type": "uint256"
        }
      ],
      "name": "retrieveED",
      "outputs": [
        {
          "internalType": "string",
          "name": "board",
          "type": "string"
        },
        {
          "internalType": "string",
          "name": "name",
          "type": "string"
        },
        {
          "internalType": "string",
          "name": "course",
          "type": "string"
        },
        {
          "internalType": "string",
          "name": "year",
          "type": "string"
        },
        {
          "internalType": "string",
          "name": "seatNo",
          "type": "string"
        },
        {
          "internalType": "string",
          "name": "percentage",
          "type": "string"
        }
      ],
      "stateMutability": "view",
      "type": "function",
      "constant": true
    },
    {
      "inputs": [
        {
          "internalType": "string",
          "name": "board",
          "type": "string"
        },
        {
          "internalType": "string",
          "name": "name",
          "type": "string"
        },
        {
          "internalType": "string",
          "name": "course",
          "type": "string"
        },
        {
          "internalType": "string",
          "name": "year",
          "type": "string"
        },
        {
          "internalType": "string",
          "name": "stNo",
          "type": "string"
        },
        {
          "internalType": "string",
          "name": "percentage",
          "type": "string"
        },
        {
          "internalType": "address",
          "name": "ofPerson",
          "type": "address"
        }
      ],
      "name": "insertED",
      "outputs": [],
      "stateMutability": "nonpayable",
      "type": "function"
    }
  ],
  "bytecode": "0x608060405233600260006101000a81548173ffffffffffffffffffffffffffffffffffffffff021916908373ffffffffffffffffffffffffffffffffffffffff16021790555034801561005157600080fd5b506115fc806100616000396000f3fe608060405234801561001057600080fd5b50600436106100885760003560e01c8063aebc0d051161005b578063aebc0d051461012c578063b9d0a9b914610148578063bef6295f14610166578063c1ff67761461018257610088565b806351e1e3e71461008d57806379c26eb8146100a95780638da5cb5b146100de5780638ea25ea3146100fc575b600080fd5b6100a760048036038101906100a29190610f22565b6101b2565b005b6100c360048036038101906100be9190610f85565b6101be565b6040516100d59695949392919061105e565b60405180910390f35b6100e66106e0565b6040516100f391906110f8565b60405180910390f35b61011660048036038101906101119190610f22565b610706565b6040516101239190611122565b60405180910390f35b61014660048036038101906101419190611272565b61085c565b005b610150610b4a565b60405161015d91906113d7565b60405180910390f35b610180600480360381019061017b9190610f22565b610ba8565b005b61019c60048036038101906101979190610f22565b610bb4565b6040516101a991906113d7565b60405180910390f35b6101bb81610c86565b50565b60608060608060608087600115156000808373ffffffffffffffffffffffffffffffffffffffff1673ffffffffffffffffffffffffffffffffffffffff16815260200190815260200160002060000160003373ffffffffffffffffffffffffffffffffffffffff1673ffffffffffffffffffffffffffffffffffffffff16815260200190815260200160002060009054906101000a900460ff161515148061029157503373ffffffffffffffffffffffffffffffffffffffff168173ffffffffffffffffffffffffffffffffffffffff16145b6102d0576040517f08c379a00000000000000000000000000000000000000000000000000000000081526004016102c79061143e565b60405180910390fd5b6000600360008b73ffffffffffffffffffffffffffffffffffffffff1673ffffffffffffffffffffffffffffffffffffffff16815260200190815260200160002089815481106103235761032261145e565b5b90600052602060002090600602016040518060c001604052908160008201805461034c906114bc565b80601f0160208091040260200160405190810160405280929190818152602001828054610378906114bc565b80156103c55780601f1061039a576101008083540402835291602001916103c5565b820191906000526020600020905b8154815290600101906020018083116103a857829003601f168201915b505050505081526020016001820180546103de906114bc565b80601f016020809104026020016040519081016040528092919081815260200182805461040a906114bc565b80156104575780601f1061042c57610100808354040283529160200191610457565b820191906000526020600020905b81548152906001019060200180831161043a57829003601f168201915b50505050508152602001600282018054610470906114bc565b80601f016020809104026020016040519081016040528092919081815260200182805461049c906114bc565b80156104e95780601f106104be576101008083540402835291602001916104e9565b820191906000526020600020905b8154815290600101906020018083116104cc57829003601f168201915b50505050508152602001600382018054610502906114bc565b80601f016020809104026020016040519081016040528092919081815260200182805461052e906114bc565b801561057b5780601f106105505761010080835404028352916020019161057b565b820191906000526020600020905b81548152906001019060200180831161055e57829003601f168201915b50505050508152602001600482018054610594906114bc565b80601f01602080910402602001604051908101604052809291908181526020018280546105c0906114bc565b801561060d5780601f106105e25761010080835404028352916020019161060d565b820191906000526020600020905b8154815290600101906020018083116105f057829003601f168201915b50505050508152602001600582018054610626906114bc565b80601f0160208091040260200160405190810160405280929190818152602001828054610652906114bc565b801561069f5780601f106106745761010080835404028352916020019161069f565b820191906000526020600020905b81548152906001019060200180831161068257829003601f168201915b5050505050815250509050806000015181602001518260400151836060015184608001518560a0015197509750975097509750975050509295509295509295565b600260009054906101000a900473ffffffffffffffffffffffffffffffffffffffff1681565b600081600115156000808373ffffffffffffffffffffffffffffffffffffffff1673ffffffffffffffffffffffffffffffffffffffff16815260200190815260200160002060000160003373ffffffffffffffffffffffffffffffffffffffff1673ffffffffffffffffffffffffffffffffffffffff16815260200190815260200160002060009054906101000a900460ff16151514806107d257503373ffffffffffffffffffffffffffffffffffffffff168173ffffffffffffffffffffffffffffffffffffffff16145b610811576040517f08c379a00000000000000000000000000000000000000000000000000000000081526004016108089061143e565b60405180910390fd5b600360008473ffffffffffffffffffffffffffffffffffffffff1673ffffffffffffffffffffffffffffffffffffffff16815260200190815260200160002080549050915050919050565b80600115156000808373ffffffffffffffffffffffffffffffffffffffff1673ffffffffffffffffffffffffffffffffffffffff16815260200190815260200160002060000160003373ffffffffffffffffffffffffffffffffffffffff1673ffffffffffffffffffffffffffffffffffffffff16815260200190815260200160002060009054906101000a900460ff161515148061092657503373ffffffffffffffffffffffffffffffffffffffff168173ffffffffffffffffffffffffffffffffffffffff16145b610965576040517f08c379a000000000000000000000000000000000000000000000000000000000815260040161095c9061143e565b60405180910390fd5b60011515600160003373ffffffffffffffffffffffffffffffffffffffff1673ffffffffffffffffffffffffffffffffffffffff16815260200190815260200160002060000160029054906101000a900460ff161515146109fb576040517f08c379a00000000000000000000000000000000000000000000000000000000081526004016109f29061153a565b60405180910390fd5b600360008373ffffffffffffffffffffffffffffffffffffffff1673ffffffffffffffffffffffffffffffffffffffff1681526020019081526020016000206040518060c001604052808a81526020018981526020018881526020018781526020018681526020018581525090806001815401808255809150506001900390600052602060002090600602016000909190919091506000820151816000019080519060200190610aac929190610e0d565b506020820151816001019080519060200190610ac9929190610e0d565b506040820151816002019080519060200190610ae6929190610e0d565b506060820151816003019080519060200190610b03929190610e0d565b506080820151816004019080519060200190610b20929190610e0d565b5060a0820151816005019080519060200190610b3d929190610e0d565b5050505050505050505050565b600060011515600160003373ffffffffffffffffffffffffffffffffffffffff1673ffffffffffffffffffffffffffffffffffffffff16815260200190815260200160002060000160029054906101000a900460ff16151514905090565b610bb181610d20565b50565b6000600115156000808473ffffffffffffffffffffffffffffffffffffffff1673ffffffffffffffffffffffffffffffffffffffff16815260200190815260200160002060000160003373ffffffffffffffffffffffffffffffffffffffff1673ffffffffffffffffffffffffffffffffffffffff16815260200190815260200160002060009054906101000a900460ff1615151480610c7f57503373ffffffffffffffffffffffffffffffffffffffff168273ffffffffffffffffffffffffffffffffffffffff16145b9050919050565b60016000803373ffffffffffffffffffffffffffffffffffffffff1673ffffffffffffffffffffffffffffffffffffffff16815260200190815260200160002060000160008373ffffffffffffffffffffffffffffffffffffffff1673ffffffffffffffffffffffffffffffffffffffff16815260200190815260200160002060006101000a81548160ff02191690831515021790555050565b600260009054906101000a900473ffffffffffffffffffffffffffffffffffffffff1673ffffffffffffffffffffffffffffffffffffffff163373ffffffffffffffffffffffffffffffffffffffff1614610db0576040517f08c379a0000000000000000000000000000000000000000000000000000000008152600401610da7906115a6565b60405180910390fd5b60018060008373ffffffffffffffffffffffffffffffffffffffff1673ffffffffffffffffffffffffffffffffffffffff16815260200190815260200160002060000160026101000a81548160ff02191690831515021790555050565b828054610e19906114bc565b90600052602060002090601f016020900481019282610e3b5760008555610e82565b82601f10610e5457805160ff1916838001178555610e82565b82800160010185558215610e82579182015b82811115610e81578251825591602001919060010190610e66565b5b509050610e8f9190610e93565b5090565b5b80821115610eac576000816000905550600101610e94565b5090565b6000604051905090565b600080fd5b600080fd5b600073ffffffffffffffffffffffffffffffffffffffff82169050919050565b6000610eef82610ec4565b9050919050565b610eff81610ee4565b8114610f0a57600080fd5b50565b600081359050610f1c81610ef6565b92915050565b600060208284031215610f3857610f37610eba565b5b6000610f4684828501610f0d565b91505092915050565b6000819050919050565b610f6281610f4f565b8114610f6d57600080fd5b50565b600081359050610f7f81610f59565b92915050565b60008060408385031215610f9c57610f9b610eba565b5b6000610faa85828601610f0d565b9250506020610fbb85828601610f70565b9150509250929050565b600081519050919050565b600082825260208201905092915050565b60005b83811015610fff578082015181840152602081019050610fe4565b8381111561100e576000848401525b50505050565b6000601f19601f8301169050919050565b600061103082610fc5565b61103a8185610fd0565b935061104a818560208601610fe1565b61105381611014565b840191505092915050565b600060c08201905081810360008301526110788189611025565b9050818103602083015261108c8188611025565b905081810360408301526110a08187611025565b905081810360608301526110b48186611025565b905081810360808301526110c88185611025565b905081810360a08301526110dc8184611025565b9050979650505050505050565b6110f281610ee4565b82525050565b600060208201905061110d60008301846110e9565b92915050565b61111c81610f4f565b82525050565b60006020820190506111376000830184611113565b92915050565b600080fd5b600080fd5b7f4e487b7100000000000000000000000000000000000000000000000000000000600052604160045260246000fd5b61117f82611014565b810181811067ffffffffffffffff8211171561119e5761119d611147565b5b80604052505050565b60006111b1610eb0565b90506111bd8282611176565b919050565b600067ffffffffffffffff8211156111dd576111dc611147565b5b6111e682611014565b9050602081019050919050565b82818337600083830152505050565b6000611215611210846111c2565b6111a7565b90508281526020810184848401111561123157611230611142565b5b61123c8482856111f3565b509392505050565b600082601f8301126112595761125861113d565b5b8135611269848260208601611202565b91505092915050565b600080600080600080600060e0888a03121561129157611290610eba565b5b600088013567ffffffffffffffff8111156112af576112ae610ebf565b5b6112bb8a828b01611244565b975050602088013567ffffffffffffffff8111156112dc576112db610ebf565b5b6112e88a828b01611244565b965050604088013567ffffffffffffffff81111561130957611308610ebf565b5b6113158a828b01611244565b955050606088013567ffffffffffffffff81111561133657611335610ebf565b5b6113428a828b01611244565b945050608088013567ffffffffffffffff81111561136357611362610ebf565b5b61136f8a828b01611244565b93505060a088013567ffffffffffffffff8111156113905761138f610ebf565b5b61139c8a828b01611244565b92505060c06113ad8a828b01610f0d565b91505092959891949750929550565b60008115159050919050565b6113d1816113bc565b82525050565b60006020820190506113ec60008301846113c8565b92915050565b7f76696577207065726d6974746564206572726f72000000000000000000000000600082015250565b6000611428601483610fd0565b9150611433826113f2565b602082019050919050565b600060208201905081810360008301526114578161141b565b9050919050565b7f4e487b7100000000000000000000000000000000000000000000000000000000600052603260045260246000fd5b7f4e487b7100000000000000000000000000000000000000000000000000000000600052602260045260246000fd5b600060028204905060018216806114d457607f821691505b602082108114156114e8576114e761148d565b5b50919050565b7f66696c6c207065726d697373696f6e206572726f720000000000000000000000600082015250565b6000611524601583610fd0565b915061152f826114ee565b602082019050919050565b6000602082019050818103600083015261155381611517565b9050919050565b7f6e6f74206f776e65720000000000000000000000000000000000000000000000600082015250565b6000611590600983610fd0565b915061159b8261155a565b602082019050919050565b600060208201905081810360008301526115bf81611583565b905091905056fea2646970667358221220e7f2ccf9ae128c95b6a6d187382e6ca969f57aa0b9bb2f81ab82fcfcdc2b959564736f6c634300080a0033",
  "immutableReferences": {},
  "source": "//SPDX-License-Identifier: UNLICENSED\r\npragma solidity >=0.5.0 <0.9.0;\r\n\r\ncontract AccessControl {\r\n    mapping(address => viewPermission) userViewPermissions;\r\n    mapping(address => fillPermission) fillPermissions;\r\n    address public owner = msg.sender;\r\n\r\n    struct viewPermission {\r\n        mapping(address => bool) user;\r\n    }\r\n\r\n    struct fillPermission {\r\n        bool bussinessDetails;\r\n        bool governmentDetails;\r\n        bool educationDetails;\r\n        bool medicalDetails;\r\n        bool bankDetails;\r\n    }\r\n\r\n    modifier onlyOwner() {\r\n        require(msg.sender == owner, \"not owner\");\r\n        _;\r\n    }\r\n\r\n    modifier onlyViewPermitted(address ofPerson) {\r\n        require(\r\n            userViewPermissions[ofPerson].user[msg.sender] == true ||\r\n                ofPerson == msg.sender,\r\n            \"view permitted error\"\r\n        );\r\n        _;\r\n    }\r\n\r\n    modifier fillPermittedGovernmentDetails() {\r\n        require(\r\n            fillPermissions[msg.sender].governmentDetails == true,\r\n            \"fill permission error\"\r\n        );\r\n        _;\r\n    }\r\n\r\n    modifier fillPermittedBussinessDetails() {\r\n        require(\r\n            fillPermissions[msg.sender].bussinessDetails == true,\r\n            \"fill permission error\"\r\n        );\r\n        _;\r\n    }\r\n\r\n    modifier fillPermittedEducationDetails() {\r\n        require(\r\n            fillPermissions[msg.sender].educationDetails == true,\r\n            \"fill permission error\"\r\n        );\r\n        _;\r\n    }\r\n\r\n    modifier fillPermittedMedicalDetails() {\r\n        require(\r\n            fillPermissions[msg.sender].medicalDetails == true,\r\n            \"fill permission error\"\r\n        );\r\n        _;\r\n    }\r\n\r\n    modifier fillPermittedBankDetails() {\r\n        require(\r\n            fillPermissions[msg.sender].bankDetails == true,\r\n            \"fill permission error\"\r\n        );\r\n        _;\r\n    }\r\n\r\n    // Grant View Permissions\r\n    function grantViewPermission(address to) internal {\r\n        userViewPermissions[msg.sender].user[to] = true;\r\n    }\r\n\r\n    // Grant Fill Permissions\r\n    function grantGovernmentDetailsFillPermisssion(address org)\r\n        internal\r\n        onlyOwner\r\n    {\r\n        fillPermissions[org].governmentDetails = true;\r\n    }\r\n\r\n    function grantBussinessDetailsFillPermisssion(address org)\r\n        internal\r\n        onlyOwner\r\n    {\r\n        fillPermissions[org].bussinessDetails = true;\r\n    }\r\n\r\n    function grantEducationDetailsFillPermisssion(address org)\r\n        internal\r\n        onlyOwner\r\n    {\r\n        fillPermissions[org].educationDetails = true;\r\n    }\r\n\r\n    function grantMedicalDetailsFillPermisssion(address org)\r\n        internal\r\n        onlyOwner\r\n    {\r\n        fillPermissions[org].medicalDetails = true;\r\n    }\r\n\r\n    function grantBankDetailsFillPermisssion(address org) internal onlyOwner {\r\n        fillPermissions[org].bankDetails = true;\r\n    }\r\n}\r\n\r\ncontract GovDetails is AccessControl {\r\n    mapping(address => BC) private userBC;\r\n    mapping(address => DC) private userDC;\r\n    mapping(address => IC) private userIC;\r\n    mapping(address => CC) private userCC;\r\n\r\n    struct BC {\r\n        string name;\r\n        string sex;\r\n        string dateOfBirth;\r\n        string placeOfBirth;\r\n        string nameOfFather;\r\n        string nameOfMother;\r\n        string dateOfRegistration;\r\n    }\r\n\r\n    struct DC {\r\n        string name;\r\n        string state;\r\n        uint256 serialNo;\r\n        string district;\r\n    }\r\n\r\n    struct IC {\r\n        string tahsildarKaryalay;\r\n        string ordinalNo;\r\n        string district;\r\n        string to;\r\n        string year;\r\n        string annualIncome;\r\n    }\r\n\r\n    struct CC {\r\n        string daughter_son_of;\r\n        string district;\r\n        string tahsil;\r\n        string to;\r\n        string caste;\r\n    }\r\n\r\n    // Grant View Permissions\r\n    function grantViewPermissionLoc(address to) external {\r\n        super.grantViewPermission(to);\r\n    }\r\n\r\n    // Grant Fill rights\r\n    function grantGovernmentDetailsFillPermisssionLoc(address org) external {\r\n        super.grantGovernmentDetailsFillPermisssion(org);\r\n    }\r\n\r\n    // Check View Rights\r\n    function checkViewRights(address ofPerson) public view returns (bool status) {\r\n        return userViewPermissions[ofPerson].user[msg.sender] == true || ofPerson == msg.sender;\r\n    }\r\n\r\n    // Check Fill Rights\r\n    function checkFillRights() public view returns (bool status) {\r\n        return fillPermissions[msg.sender].governmentDetails == true;\r\n    }\r\n\r\n    // retrieveDocuments\r\n    function retrieveBC(address ofPerson)\r\n        public\r\n        view\r\n        onlyViewPermitted(ofPerson)\r\n        returns (\r\n            string memory name,\r\n            string memory sex,\r\n            string memory dateOfBirth,\r\n            string memory placeOfBirth,\r\n            string memory nameOfFather,\r\n            string memory nameOfMother,\r\n            string memory dateOfRegistration\r\n        )\r\n    {\r\n        BC memory bcData = userBC[ofPerson];\r\n        // string memory name = userBC[ofPerson].name;\r\n        // string memory sex = userBC[ofPerson].sex;\r\n        // string memory dateOfBirth = userBC[ofPerson].dateOfBirth;\r\n        // string memory placeOfBirth = userBC[ofPerson].placeOfBirth;\r\n        // string memory nameOfFather = userBC[ofPerson].nameOfFather;\r\n        // string memory nameOfMother = userBC[ofPerson].nameOfMother;\r\n        // string memory dateOfRegistration = userBC[ofPerson].dateOfRegistration;\r\n\r\n        return (\r\n            bcData.name,\r\n            bcData.sex,\r\n            bcData.dateOfBirth,\r\n            bcData.placeOfBirth,\r\n            bcData.nameOfFather,\r\n            bcData.nameOfMother,\r\n            bcData.dateOfRegistration\r\n        );\r\n    }\r\n\r\n    function retrieveDC(address ofPerson)\r\n        public\r\n        view\r\n        onlyViewPermitted(ofPerson)\r\n        returns (\r\n            string memory name,\r\n            string memory state,\r\n            uint256 serialNo,\r\n            string memory district\r\n        )\r\n    {\r\n        string memory name = userDC[ofPerson].name;\r\n        string memory state = userDC[ofPerson].state;\r\n        uint256 serialNo = userDC[ofPerson].serialNo;\r\n        string memory district = userDC[ofPerson].district;\r\n\r\n        return (name, state, serialNo, district);\r\n    }\r\n\r\n    function retrieveIC(address ofPerson)\r\n        public\r\n        view\r\n        onlyViewPermitted(ofPerson)\r\n        returns (\r\n            string memory tahsildarKaryalay,\r\n            string memory ordinalNo,\r\n            string memory district,\r\n            string memory to,\r\n            string memory year,\r\n            string memory annualIncome\r\n        )\r\n    {\r\n        string memory tahsildarKaryalay = userIC[ofPerson].tahsildarKaryalay;\r\n        string memory ordinalNo = userIC[ofPerson].ordinalNo;\r\n        string memory district = userIC[ofPerson].district;\r\n        string memory to = userIC[ofPerson].to;\r\n        string memory year = userIC[ofPerson].year;\r\n        string memory annualIncome = userIC[ofPerson].annualIncome;\r\n\r\n        return (tahsildarKaryalay, ordinalNo, district, to, year, annualIncome);\r\n    }\r\n\r\n    function retrieveCC(address ofPerson)\r\n        public\r\n        view\r\n        onlyViewPermitted(ofPerson)\r\n        returns (\r\n            string memory daughter_son_of,\r\n            string memory district,\r\n            string memory tahsil,\r\n            string memory to,\r\n            string memory caste\r\n        )\r\n    {\r\n        string memory daughter_son_of = userCC[ofPerson].daughter_son_of;\r\n        string memory district = userCC[ofPerson].district;\r\n        string memory tahsil = userCC[ofPerson].tahsil;\r\n        string memory to = userCC[ofPerson].to;\r\n        string memory caste = userCC[ofPerson].caste;\r\n\r\n        return (daughter_son_of, district, tahsil, to, caste);\r\n    }\r\n\r\n    // insertDocuments\r\n    function insertBC(\r\n        string memory name,\r\n        string memory sex,\r\n        string memory dateOfBirth,\r\n        string memory placeOfBirth,\r\n        string memory nameOfFather,\r\n        string memory nameOfMother,\r\n        string memory dateOfRegistration,\r\n        address ofPerson // Jiska dekhna hai document\r\n    ) public onlyViewPermitted(ofPerson) fillPermittedGovernmentDetails {\r\n        userBC[ofPerson] = BC(\r\n            name,\r\n            sex,\r\n            dateOfBirth,\r\n            placeOfBirth,\r\n            nameOfFather,\r\n            nameOfMother,\r\n            dateOfRegistration\r\n        );\r\n    }\r\n\r\n    function insertDC(\r\n        string memory name,\r\n        string memory state,\r\n        uint256 serialNo,\r\n        string memory district,\r\n        address ofPerson // Jiska dekhna hai document\r\n    ) public onlyViewPermitted(ofPerson) fillPermittedGovernmentDetails {\r\n        userDC[ofPerson] = DC(name, state, serialNo, district);\r\n    }\r\n\r\n    function insertIC(\r\n        string memory tahsildarKaryalay,\r\n        string memory ordinalNo,\r\n        string memory district,\r\n        string memory to,\r\n        string memory year,\r\n        string memory annualIncome,\r\n        address ofPerson // Jiska dekhna hai document\r\n    ) public onlyViewPermitted(ofPerson) fillPermittedGovernmentDetails {\r\n        userIC[ofPerson] = IC(\r\n            tahsildarKaryalay,\r\n            ordinalNo,\r\n            district,\r\n            to,\r\n            year,\r\n            annualIncome\r\n        );\r\n    }\r\n\r\n    function insertCC(\r\n        string memory daughter_son_of,\r\n        string memory district,\r\n        string memory tahsil,\r\n        string memory to,\r\n        string memory caste,\r\n        address ofPerson // Jiska dekhna hai document\r\n    ) public onlyViewPermitted(ofPerson) fillPermittedGovernmentDetails {\r\n        userCC[ofPerson] = CC(daughter_son_of, district, tahsil, to, caste);\r\n    }\r\n}\r\n\r\ncontract EduDetails is AccessControl {\r\n    mapping(address => ED[]) private userED;\r\n    // uint public cnt = 0;\r\n\r\n    struct ED {\r\n        string board;\r\n        string name;\r\n        string course;\r\n        string year;\r\n        string seatNo;\r\n        string percentage;\r\n    }\r\n\r\n    // return length\r\n    function retLength(address ofPerson)\r\n        public\r\n        view\r\n        onlyViewPermitted(ofPerson)\r\n        returns (uint256 length)\r\n    {\r\n        return (userED[ofPerson].length);\r\n    }\r\n\r\n    // Grant View Permissions\r\n    function grantViewPermissionLoc(address to) external {\r\n        super.grantViewPermission(to);\r\n    }\r\n\r\n    // Grant Fill rights\r\n    function grantEducationDetailsFillPermisssionLoc(address org) external {\r\n        super.grantEducationDetailsFillPermisssion(org);\r\n    }\r\n\r\n    // Check View Rights\r\n    function checkViewRights(address ofPerson) public view returns (bool status) {\r\n        return userViewPermissions[ofPerson].user[msg.sender] == true || ofPerson == msg.sender;\r\n    }\r\n\r\n    // Check Fill Rights\r\n    function checkFillRights() public view returns (bool status) {\r\n        return fillPermissions[msg.sender].educationDetails == true;\r\n    }\r\n\r\n    // retrieve Edu details\r\n    function retrieveED(address ofPerson, uint256 i)\r\n        public\r\n        view\r\n        onlyViewPermitted(ofPerson)\r\n        returns (\r\n            string memory board,\r\n            string memory name,\r\n            string memory course,\r\n            string memory year,\r\n            string memory seatNo,\r\n            string memory percentage\r\n        )\r\n    {\r\n        // string[] memory board = new string[](cnt);\r\n        // string[] memory name = new string[](cnt);\r\n        // string[] memory course = new string[](cnt);\r\n        // string[] memory year = new string[](cnt);\r\n        // string[] memory seatNo = new string[](cnt);\r\n        // string[] memory percentage = new string[](cnt);\r\n\r\n        ED memory ed = userED[ofPerson][i];\r\n\r\n        // for (uint i = 0; i < cnt; i++) {\r\n        // ED storage ed = userED[ofPerson][i];\r\n        // board[i] = ed.board;\r\n        // name[i] = ed.name;\r\n        // course[i] = ed.course;\r\n        // year[i] = ed.year;\r\n        // seatNo[i] = ed.seatNo;\r\n        // percentage[i] = ed.percentage;\r\n        // }\r\n\r\n        return (\r\n            ed.board,\r\n            ed.name,\r\n            ed.course,\r\n            ed.year,\r\n            ed.seatNo,\r\n            ed.percentage\r\n        );\r\n    }\r\n\r\n    // insert education details\r\n    function insertED(\r\n        string memory board,\r\n        string memory name,\r\n        string memory course,\r\n        string memory year,\r\n        string memory stNo,\r\n        string memory percentage,\r\n        address ofPerson // Jiska dekhna hai document\r\n    ) public onlyViewPermitted(ofPerson) fillPermittedEducationDetails {\r\n        userED[ofPerson].push(ED(board, name, course, year, stNo, percentage));\r\n    }\r\n}\r\n\r\ncontract MedicalDetails is AccessControl {\r\n    mapping(address => MD) private userMD;\r\n\r\n    struct MD {\r\n        string tpaName;\r\n        string tpaId;\r\n        string insuredCode;\r\n        string insuredName;\r\n        string prevPolicyNo;\r\n        string mediclaimCpny;\r\n        string insurance;\r\n        string bloodGrp;\r\n    }\r\n\r\n    // Grant View Permissions\r\n    function grantViewPermissionLoc(address to) external {\r\n        super.grantViewPermission(to);\r\n    }\r\n\r\n    // Grant Fill rights\r\n    function grantMedicalDetailsFillPermisssionLoc(address org) external {\r\n        super.grantMedicalDetailsFillPermisssion(org);\r\n    }\r\n\r\n    // Check View Rights\r\n    function checkViewRights(address ofPerson) public view returns (bool status) {\r\n        return userViewPermissions[ofPerson].user[msg.sender] == true || ofPerson == msg.sender;\r\n    }\r\n\r\n    // Check Fill Rights\r\n    function checkFillRights() public view returns (bool status) {\r\n        return fillPermissions[msg.sender].medicalDetails == true;\r\n    }\r\n\r\n    // retrieve Medical details\r\n    function retrieveMD(address ofPerson)\r\n        public\r\n        view\r\n        onlyViewPermitted(ofPerson)\r\n        returns (\r\n            string memory tpaName,\r\n            string memory tpaId,\r\n            string memory insuredCode,\r\n            string memory insuredName,\r\n            string memory prevPolicyNo,\r\n            string memory mediclaimCpny,\r\n            string memory insurance,\r\n            string memory bloodGrp\r\n        )\r\n    {\r\n        MD storage md = userMD[ofPerson];\r\n        return (\r\n            md.tpaName,\r\n            md.tpaId,\r\n            md.insuredCode,\r\n            md.insuredName,\r\n            md.prevPolicyNo,\r\n            md.mediclaimCpny,\r\n            md.insurance,\r\n            md.bloodGrp\r\n        );\r\n    }\r\n\r\n    // insert medical details\r\n    function insertMD(\r\n        string memory tpaName,\r\n        string memory tpaId,\r\n        string memory insuredCode,\r\n        string memory insuredName,\r\n        string memory prevPolicyNo,\r\n        string memory mediclaimCpny,\r\n        string memory insurance,\r\n        string memory bloodGrp,\r\n        address ofPerson // Jiska dekhna hai document\r\n    ) public onlyViewPermitted(ofPerson) fillPermittedMedicalDetails {\r\n        userMD[ofPerson] = MD(\r\n            tpaName,\r\n            tpaId,\r\n            insuredCode,\r\n            insuredName,\r\n            prevPolicyNo,\r\n            mediclaimCpny,\r\n            insurance,\r\n            bloodGrp\r\n        );\r\n    }\r\n}\r\n\r\ncontract BankDetails is AccessControl {\r\n    mapping(address => BD) private userBD;\r\n\r\n    struct BD {\r\n        string ifscCode;\r\n        string acNo;\r\n        string bankName;\r\n        string branch;\r\n    }\r\n\r\n    // Grant View Permissions\r\n    function grantViewPermissionLoc(address to) external {\r\n        super.grantViewPermission(to);\r\n    }\r\n\r\n    // Grant Fill rights\r\n    function grantBankDetailsFillPermisssionLoc(address org) external {\r\n        super.grantBankDetailsFillPermisssion(org);\r\n    }\r\n\r\n    // Check View Rights\r\n    function checkViewRights(address ofPerson) public view returns (bool status) {\r\n        return userViewPermissions[ofPerson].user[msg.sender] == true || ofPerson == msg.sender;\r\n    }\r\n\r\n    // Check Fill Rights\r\n    function checkFillRights() public view returns (bool status) {\r\n        return fillPermissions[msg.sender].bankDetails == true;\r\n    }\r\n\r\n    // retrieve Bank details\r\n    function retrieveBD(address ofPerson)\r\n        public\r\n        view\r\n        onlyViewPermitted(ofPerson)\r\n        returns (\r\n            string memory ifscCode,\r\n            string memory acNo,\r\n            string memory bankName,\r\n            string memory branch\r\n        )\r\n    {\r\n        string memory ifscCode = userBD[ofPerson].ifscCode;\r\n        string memory acNo = userBD[ofPerson].acNo;\r\n        string memory bankName = userBD[ofPerson].bankName;\r\n        string memory branch = userBD[ofPerson].branch;\r\n        // return userBD[ofPerson];\r\n        return (ifscCode, acNo, bankName, branch);\r\n    }\r\n\r\n    // insert Bank details\r\n    function insertBD(\r\n        string memory ifscCode,\r\n        string memory acNo,\r\n        string memory bankName,\r\n        string memory branch,\r\n        address ofPerson // Jiska dekhna hai document\r\n    ) public onlyViewPermitted(ofPerson) fillPermittedBankDetails {\r\n        userBD[ofPerson] = (BD(ifscCode, acNo, bankName, branch));\r\n    }\r\n}\r\n\r\ncontract BusinessDetails is AccessControl {\r\n    mapping(address => BusDet) private userBusDet;\r\n\r\n    struct BusDet {\r\n        string companyName;\r\n        string position;\r\n        string year;\r\n        string salary;\r\n    }\r\n\r\n    // Grant View Permissions\r\n    function grantViewPermissionLoc(address to) external {\r\n        super.grantViewPermission(to);\r\n    }\r\n\r\n    // Grant Fill rights\r\n    function grantBussinessDetailsFillPermisssionLoc(address org) external {\r\n        super.grantBussinessDetailsFillPermisssion(org);\r\n    }\r\n\r\n    // Check View Rights\r\n    function checkViewRights(address ofPerson) public view returns (bool status) {\r\n        return userViewPermissions[ofPerson].user[msg.sender] == true || ofPerson == msg.sender;\r\n    }\r\n\r\n    // Check Fill Rights\r\n    function checkFillRights() public view returns (bool status) {\r\n        return fillPermissions[msg.sender].bussinessDetails == true;\r\n    }\r\n\r\n    // retrieve Business details\r\n    function retrieveBusDet(address ofPerson)\r\n        public\r\n        view\r\n        onlyViewPermitted(ofPerson)\r\n        returns (\r\n            string memory companyName,\r\n            string memory position,\r\n            string memory year,\r\n            string memory salary\r\n        )\r\n    {\r\n        string memory companyName = userBusDet[ofPerson].companyName;\r\n        string memory position = userBusDet[ofPerson].position;\r\n        string memory year = userBusDet[ofPerson].year;\r\n        string memory salary = userBusDet[ofPerson].salary;\r\n        return (companyName, position, year, salary);\r\n    }\r\n\r\n    // insert Business details\r\n    function insertBusDet(\r\n        string memory companyName,\r\n        string memory position,\r\n        string memory year,\r\n        string memory salary,\r\n        address ofPerson // Jiska dekhna hai document\r\n    ) public onlyViewPermitted(ofPerson) fillPermittedBussinessDetails {\r\n        userBusDet[ofPerson] = BusDet(companyName, position, year, salary);\r\n    }\r\n}\r\n",
  "sourcePath": "D:\\Blockchain\\truffle tut\\ETHEREUM\\revTruffle\\contracts\\documents.sol",
  "compiler": {
    "name": "solc",
    "version": "0.8.10+commit.fc410830.Emscripten.clang"
  },
  "schemaVersion": "3.4.4",
  "updatedAt": "2022-02-19T07:39:40.066Z",
  "networkType": "ethereum",
  "devdoc": {
    "kind": "dev",
    "methods": {},
    "version": 1
  },
  "userdoc": {
    "kind": "user",
    "methods": {},
    "version": 1
  }
}